{
  "contractName": "DelegatedPublicFormSubmission",
  "abi": [
    {
      "constant": false,
      "inputs": [
        {
          "name": "surveyId",
          "type": "bytes32"
        },
        {
          "name": "_answers",
          "type": "bytes32"
        }
      ],
      "name": "submit",
      "outputs": [],
      "payable": false,
      "stateMutability": "nonpayable",
      "type": "function",
      "signature": "0xd26ff86e"
    },
    {
      "anonymous": false,
      "inputs": [
        {
          "indexed": true,
          "name": "surveyId",
          "type": "bytes32"
        },
        {
          "indexed": false,
          "name": "user",
          "type": "address"
        },
        {
          "indexed": false,
          "name": "answers",
          "type": "bytes32"
        }
      ],
      "name": "Submission",
      "type": "event",
      "signature": "0x7d7b40b1a77897a6d2400c6937e4447f51cd07be5193d885c841349d4177c6eb"
    },
    {
      "constant": false,
      "inputs": [
        {
          "name": "surveyId",
          "type": "bytes32"
        },
        {
          "name": "answers",
          "type": "bytes32"
        },
        {
          "name": "user",
          "type": "address"
        },
        {
          "name": "r",
          "type": "bytes32"
        },
        {
          "name": "s",
          "type": "bytes32"
        },
        {
          "name": "v",
          "type": "uint8"
        }
      ],
      "name": "delegatedSubmit",
      "outputs": [],
      "payable": false,
      "stateMutability": "nonpayable",
      "type": "function",
      "signature": "0x7125803f"
    }
  ],
  "bytecode": "0x608060405234801561001057600080fd5b50610295806100206000396000f3fe608060405234801561001057600080fd5b5060043610610052577c010000000000000000000000000000000000000000000000000000000060003504637125803f8114610057578063d26ff86e146100ad575b600080fd5b6100ab600480360360c081101561006d57600080fd5b50803590602081013590604081013573ffffffffffffffffffffffffffffffffffffffff169060608101359060808101359060a0013560ff166100d0565b005b6100ab600480360360408110156100c357600080fd5b508035906020013561022b565b6040805160208082018990528183018890528251808303840181526060830184528051908201207fb6a5021c7e19977fdd997afd3c98f64fd1c39faa37ce5d847d7ae2483519c5f46080840181905260a0808501929092528451808503909201825260c0840180865282519284019290922060009283905260e0850180875281905260ff8716610100860152610120850189905261014085018890529451909493919260019261016080820193601f1981019281900390910190855afa15801561019e573d6000803e3d6000fd5b5050604051601f19015191505073ffffffffffffffffffffffffffffffffffffffff808216908816146101d057600080fd5b6040805173ffffffffffffffffffffffffffffffffffffffff83168152602081018a905281518b927f7d7b40b1a77897a6d2400c6937e4447f51cd07be5193d885c841349d4177c6eb928290030190a2505050505050505050565b6040805133815260208101839052815184927f7d7b40b1a77897a6d2400c6937e4447f51cd07be5193d885c841349d4177c6eb928290030190a2505056fea165627a7a7230582021cdb9a01c4e5570310533e2e6c8fdcd24389793b39b629989d1d87a108a951c0029",
  "source": "pragma solidity >=0.4.22 <0.6.0;\nimport \"./PublicFormSubmission.sol\";\ncontract DelegatedPublicFormSubmission is PublicFormSubmission {\n    /// @dev Allow users with no ETH to participate in the survey\n    /// The user parameter is not necessary but ensures correct submissions\n    /// The Metamask signing scheme is changing quick and there's risk of\n    /// submissions producing wrong signer addresses\n    /// @dev The surveyId is the content hash of the survey IPFS has\n    /// which contains this contract's address and the network ID. Therefore\n    /// the surveyId prevents reusing this signature in other networks or contracts\n    /// @dev The front-end will filter by equal submissions, so with on a replay\n    /// attack, additional submissions will be ignored\n    function delegatedSubmit(\n        bytes32 surveyId,\n        bytes32 answers,\n        address user,\n        bytes32 r,\n        bytes32 s,\n        uint8 v\n    ) public {\n        /// @dev Pre-hashed value to save hash\n        /// [ \"bytes32 Survey ID\", \"bytes32 Answers\" ]\n        /// 0xb6a5021c7e19977fdd997afd3c98f64fd1c39faa37ce5d847d7ae2483519c5f4\n        bytes32 schemaHash = 0xb6a5021c7e19977fdd997afd3c98f64fd1c39faa37ce5d847d7ae2483519c5f4;\n\n        bytes32 _hash = keccak256(abi.encode(\n            schemaHash,\n\t        keccak256(abi.encode(surveyId, answers))\n        ));\n\n\t\taddress signer = ecrecover(_hash, v, r, s);\n        require(signer == user);\n        emit Submission(surveyId, signer, answers);\n\t}\n}",
  "sourcePath": "/home/lion/Documents/d4rm/ethereum-backend/contracts/DelegatedPublicFormSubmission.sol",
  "compiler": {
    "name": "solc",
    "version": "0.5.3+commit.10d17f24.Emscripten.clang"
  },
  "schemaVersion": "3.0.8",
  "updatedAt": "2019-05-07T12:13:49.369Z",
  "devdoc": {
    "methods": {
      "delegatedSubmit(bytes32,bytes32,address,bytes32,bytes32,uint8)": {
        "details": "Allow users with no ETH to participate in the survey The user parameter is not necessary but ensures correct submissions The Metamask signing scheme is changing quick and there's risk of submissions producing wrong signer addressesThe surveyId is the content hash of the survey IPFS has which contains this contract's address and the network ID. Therefore the surveyId prevents reusing this signature in other networks or contractsThe front-end will filter by equal submissions, so with on a replay attack, additional submissions will be ignored"
      },
      "submit(bytes32,bytes32)": {
        "details": "Answers are encoded as a multichoice each hex character of the bytes32 array 0x13000000... Means the second option of the first question and the fourth of the second."
      }
    }
  },
  "userdoc": {
    "methods": {}
  }
}