{
  "contractName": "PublicFormSubmission",
  "abi": [
    {
      "inputs": [
        {
          "indexed": true,
          "name": "surveyId",
          "type": "bytes32"
        },
        {
          "indexed": false,
          "name": "user",
          "type": "address"
        },
        {
          "indexed": false,
          "name": "answers",
          "type": "bytes32"
        }
      ],
      "payable": false,
      "stateMutability": "nonpayable",
      "type": "event",
      "signature": "constructor",
      "anonymous": false,
      "name": "Submission"
    },
    {
      "anonymous": false,
      "inputs": [
        {
          "indexed": true,
          "name": "surveyId",
          "type": "bytes32"
        },
        {
          "indexed": false,
          "name": "_answers",
          "type": "bytes32"
        },
        {
          "indexed": false,
          "name": "answers",
          "type": "bytes32"
        }
      ],
      "name": "submit",
      "type": "function",
      "signature": "0x7d7b40b1a77897a6d2400c6937e4447f51cd07be5193d885c841349d4177c6eb",
      "constant": false,
      "outputs": [],
      "payable": false,
      "stateMutability": "nonpayable"
    },
    {
      "constant": false,
      "inputs": [
        {
          "name": "surveyId",
          "type": "bytes32"
        },
        {
          "name": "_answers",
          "type": "bytes32"
        }
      ],
      "name": "submit",
      "outputs": [],
      "payable": false,
      "stateMutability": "nonpayable",
      "type": "function",
      "signature": "0xd26ff86e"
    }
  ],
  "bytecode": "0x6080604052348015600f57600080fd5b5060d58061001e6000396000f3fe6080604052348015600f57600080fd5b50600436106044577c01000000000000000000000000000000000000000000000000000000006000350463d26ff86e81146049575b600080fd5b606960048036036040811015605d57600080fd5b5080359060200135606b565b005b6040805133815260208101839052815184927f7d7b40b1a77897a6d2400c6937e4447f51cd07be5193d885c841349d4177c6eb928290030190a2505056fea165627a7a72305820320042be4d3ed8b6a600b83063231a85ee831dbcadf4a166eceb1e34ae4a9a6f0029",
  "source": "pragma solidity >=0.4.22 <0.6.0;\ncontract PublicFormSubmission {\n    /// @dev surveyId is the hash of the file in IPFS multihash\n    event Submission(bytes32 indexed surveyId, address user, bytes32 answers);\n\n    /// @dev Answers are encoded as a multichoice each hex character of the bytes32 array\n    /// 0x13000000... Means the second option of the first question and the fourth of the second.\n    function submit(bytes32 surveyId, bytes32 _answers) public {\n        emit Submission(surveyId, msg.sender, _answers);\n    }\n}",
  "sourcePath": "/home/lion/Documents/d4rm/ethereum-backend/contracts/PublicFormSubmission.sol",
  "compiler": {
    "name": "solc",
    "version": "0.5.3+commit.10d17f24.Emscripten.clang"
  },
  "schemaVersion": "3.0.8",
  "updatedAt": "2019-05-07T12:13:49.384Z",
  "devdoc": {
    "methods": {
      "submit(bytes32,bytes32)": {
        "details": "Answers are encoded as a multichoice each hex character of the bytes32 array 0x13000000... Means the second option of the first question and the fourth of the second."
      }
    }
  },
  "userdoc": {
    "methods": {}
  }
}